:1000000012C02CC02BC02AC029C028C027C026C0BF
:1000100025C024C023C0C4C09CC020C01FC01EC0B7
:100020001DC01CC01BC011241FBECFE5D4E0DEBF25
:10003000CDBF10E0A0E6B0E0EEEDF1E002C005902B
:100040000D92A838B107D9F721E0A8E8B0E001C0C7
:100050001D92AD30B207E1F702D0BFC0D1CFCF9330
:10006000DF93CDB7DEB72A970FB6F894DEBF0FBE89
:10007000CDBFB89AC0981FD080E690E056D08FB719
:1000800011E02FE38DE093E0215080409040E1F7B4
:1000900000C0000058D0882319F080E790E045D0D8
:1000A00088B3812788BBC09881E890E03ED0CE011C
:1000B00001963BD0E6CFF8941BB81AB889E189B90C
:1000C00010BC88E98AB986E880BD10928800109239
:1000D000890010928A0010928B0010928C00789404
:1000E000089580918C0090918B00891B08951F9337
:1000F000CF93DF93182FC0E4D0E0F3DF9E01281BDD
:10010000310923303105CCF3E0918C00EF73F0E03E
:10011000E353FF4F108380918C008F5F80938C009E
:10012000559ADF91CF911F910895CF93DF93EC0102
:100130008881882329F02196DADF89918111FCCF0B
:10014000DF91CF91089580918A0090918900891B59
:1001500008951F920F920FB60F9211248F939F93C1
:10016000EF93FF9390918C0080918B00981771F022
:10017000E0918B00EF73F0E0E353FF4F80818CB987
:1001800080918B008F5F80938B0001C05598FF9109
:10019000EF919F918F910F900FBE0F901F90189528
:1001A0001F920F920FB60F9211248F93EF93FF932C
:1001B000E0918A00EF73F0E08CB1E357FF4F80834A
:1001C00080918A008F5F80938A00FF91EF918F91D9
:0E01D0000F900FBE0F901F901895F894FFCF60
:1001DE00496E697420636F6D706C6574650D0A00ED
:1001EE00476F7420736F6D652042595445530D0A45
:0801FE00005469636B0D0A0057
:00000001FF
