:1000000012C024C023C022C021C020C01FC01EC0F7
:100010001DC01CC01BC01AC019C018C017C016C014
:1000200015C014C013C011241FBECFE5D4E0DEBF3D
:10003000CDBF10E0A0E6B0E0EEEEF1E002C005902A
:100040000D92A637B107D9F72BD0CFC0D9CFFC017D
:10005000A281B3819C9121E030E002C0220F331FC6
:100060006A95E2F7922B9C930190F081E02D8081BC
:100070002095282320830895DC01ED91FC912081B7
:1000800081E090E002C0880F991F6A95E2F782270D
:1000900080830895FC0171836083538342830895B4
:1000A000CF93DF93CDB7DEB72F970FB6F894DEBFAF
:1000B0000FBECDBF47E350E068E370E0CE0101968C
:1000C000E9DF60E070E0CE010196C1DF69E170E038
:1000D000CE01059638D0B998C19A00E010E080E0D2
:1000E00090E0C12CD12CEC2CFD2CAA24A394B12C93
:1000F00005C000E010E002C08E2D9F2DB199FCCF0D
:100100000F5F1F4F0D3D25E01207C4F3009789F7DD
:100110006C2D7D2DCE010196AFDF4AE0BE016A5FF6
:100120007F4FC8012FD060E670E0CE01059616D053
:10013000BE016A5F7F4FCE01059610D000E010E04F
:100140008A2D9B2DDBCF69B970BD88E98AB986E815
:1001500080BD08955D9BFECF6CB908950F931F93EA
:10016000CF93DF93EB016881662339F08C012196F0
:10017000C801F0DF69916111FBCFDF91CF911F9131
:100180000F910895BB274A3031F4992322F4BDE240
:10019000909581959F4F01C0BB27FB015527AA274A
:1001A000880F991FAA1FA41710F0A41B8395505104
:1001B000B9F7A05DAA3308F0A95DA193009779F77C
:1001C000B111B1931192CB0100C0DC01FC01672F8A
:1001D00071917723E1F7329704C07C916D9370831E
:0E01E0006291AE17BF07C8F30895F894FFCFE1
:1001EE000D0A20427574746F6E207072657373659C
:0601FE00642E200D0A0032
:00000001FF
